:100000000C94EE020C9416030C9416030C94160335
:100010000C9416030C9416030C9416030C941603FC
:100020000C9416030C9416030C9416030C94CB1C1E
:100030000C9416030C9416030C9416030C941603DC
:100040000C94281D0C9416030C9416030C941603A0
:100050000C9416030C9416030C9416030C941603BC
:100060000C9416030C94160370037D038C03910308
:100070009C03A303AC03D90BF70BFD0BFA0BF40B9A
:10008000DE0BD60B08061CDAD6D6FE7C08067CFAF8
:10009000D6D6FE7C08060402E6F61E0E0806FCFA1A
:1000A0009E96F6640806DCDADED6F66408061C1AAC
:1000B00018FEFE18080644C2D6D6FE7C0806C4E226
:1000C000F6FEDECC0806040A0EFEFE7C08067CFA6C
:1000D0008686FE7C1018F1E0FDF8C508C548FDD8FD
:1000E00000003DE041F88048F0787DE00000F1E05C
:1000F000FDF8940895F8840801F80000FDE0F5F893
:1001000015281D28F108100F007C38FAE0FEE0E009
:1001100038E0006000007070A8A8A8A890900000C7
:10012000C200FE008000100FC67CEAFA7E7C7C10C4
:10013000EE7CC6FE007C04000A7C0EFAFED6FED6DB
:100140000EC60E44040008204CDAFEFE76007CFA4F
:10015000C6C682007CFAC6C6FE7C007CFAFE3272FD
:10016000FEDC007CFAD6C64454657472696E6F205A
:100170006279204A6F6666202853544329005465EB
:100180007472696E6F206279204A6F666620285308
:100190005443290054657472696E6F206279204A55
:1001A0006F666620285354432900401E000800084B
:1001B0000080000000080018018000000018001CEA
:1001C000014000000038003403C00000006C003C17
:1001D00007400000007C003E07A0000000FFFFFF7A
:1001E000FFFFF00000C000000000100001FFF9FF59
:1001F000EFFFB00003FFF9FFCFFF300007FFF1FF73
:10020000DFFF300007FFF1FF9FFE70000FFFF3FFDD
:10021000BFFE70001FFFE3FFBFFCF00010000000F6
:100220000000F000100000003FFFF0001FFF9FFEE5
:100230007FFFF0001FFFBFFC7FFFE0001DFF3FFDC1
:100240007FFFE000115F7FF97FFFC000000C7FFBA4
:100250007FFFC000000CFFFB7FFF8000001CFFF34E
:100260007FFF80000001FFF77FFF80000000000794
:10027000000000000007FFFF000000000007FFFF74
:100280000000000000079FBF00000000000614FFF0
:10029000000000000000002F0000000003053F21C7
:1002A0003F1208120A100A0E1C0E0C1E0C141A140F
:1002B000161F161E131E1E1B1E1E1F1E3F213F3A19
:1002C0002F3A173D173F213F181F02040A041F0E43
:1002D00004040E1F0A1F0A0E0E1F04110E2E252ED7
:1002E0002F2A2E262929021F02081F08150E040492
:1002F0000E150E15151B151B040604040C04000036
:10030000000017000300031F0A1F16371A190413F1
:100310000A153A000300000E11110E000A040A0427
:100320000E040030000404040010001804031F1120
:100330001F121F101D151711151F07041F17151D5C
:100340001F151D01011F1F151F17151F000A000093
:100350003200040A110A0A0A110A040115020E11D8
:10036000171E051E1F150A0E110A1F110E1F15114B
:100370001F05010E111D1F041F111F1108100F1F53
:10038000041B1F10101F061F1E040F0E110E1F0945
:10039000060E112E1F051A121509011F011F101F2D
:1003A0000F180F1F0C1F1B041B031C031915130030
:1003B0001F11030418111F00020102202020000158
:1003C000020C121E1F120C0C12120C121F0C1A140B
:1003D000041E05242A1E1F021C141D1020201D1F90
:1003E0000814111F101E041E1E021C0C120C3E0AC3
:1003F000040C123E1E040214160A020F120E101EE6
:100400000E100E1E081E120C1226281E322A26045A
:100410001E21001F00211E040102013F213F0A4E40
:100420006F2053442063617264206F720A6E6F20E4
:100430004C4F414445522E4845580A0A153A4578D2
:100440006974001D20466C617368696E670A20201C
:100450006C6F616465722E2E2E0A0A444F4E27542B
:10046000205455524E204F464621000A0A153A495B
:10047000676E6F7265006D560A0A504C45415345D0
:10048000205455524E204F464620004C4F57204294
:1004900041545445525921200017534400161378F3
:1004A00000161314001510200015201000540A0324
:1004B000E181867F3E186D830F0F0E0183866033C6
:1004C000186DC3198F1803C38E6033186DE330CFD6
:1004D0001803C39E603630CDE360CF3006C79E7EE2
:1004E0003E30CDB360CF300CC6F6603330D9B66045
:1004F000CF33CFCCF66061B0DB1E60CF30D86CE676
:10050000C061B0DB1E618F19986CC6C063B19B0ED1
:10051000330F0FB078C6FF7E1F1B061E0F05008924
:100520003008023802497868140000F6E8DBCFC3CF
:10053000B8AEA49B928A827B746E68625C57524EFE
:100540004945413E3A3734312E2C29272523211F96
:100550001D1C1A1917161514131211100F0E0D0C5D
:100560000B0A09080706450068010000050038016C
:10057000680100007C0578050101FF030101F70314
:100580000000000800020100000304070000000052
:10059000000000000102040810204080010204084D
:1005A00010200102040810200404040404040404BC
:1005B000020202020202030303030303000000001D
:1005C00023002600290000000000250028002B0041
:1005D00000000000240027002A00910E11241FBEF5
:1005E000CFEFD8E0DEBFCDBF11E0A0E0B1E0EAE997
:1005F000F6E402C005900D92A439B107D9F726E0C0
:10060000A4E9B1E001C01D92A437B207E1F715E0FB
:10061000CCEDD5E004C02297FE010E94C122CA3D64
:10062000D107C9F70E940D210C944B230C940000B4
:10063000AF92BF92CF92DF92EF92FF920F931F93F0
:10064000CF93DF937A01EE0CFF1CE0E0F0E0E417BB
:10065000F507E4F4CF01841B950B880F991F860FD3
:10066000971FC0E0D0E0A12CB12CCE0DDF1DA2164B
:10067000B30654F46C01CC0EDD1ED6010D931C9311
:10068000BFEFAB1ABB0AF1CF3196E1CFDF91CF912B
:100690001F910F91FF90EF90DF90CF90BF90AF90A0
:1006A0000895EF92FF920F931F93CF93DF937B01F7
:1006B000EA010FEF1FEF24E030E044E050E0BE011C
:1006C0000E94180383E090E09DA38CA387E0E816C6
:1006D000F10408F04BC0F701EC5CFF4F0C94BF2213
:1006E00081E090E09B838A839B878A879B8B8A8BA0
:1006F0009B8F8A8F84E090E00CC086E090E0998325
:1007000088839B838A83998788879B878A8782E0EF
:1007100090E09DA38CA32AC087E090E09B838A830E
:100720000FC085E090E09B838A83998788879B87A9
:100730008A87998B888B1AC082E090E0998388839E
:100740009987888706C083E090E0998388839B839C
:100750008A839B878A8708C084E090E09B838A8392
:100760009B878A87998B888B9B8B8A8BFFA2EEA2B3
:10077000DF91CF911F910F91FF90EF900895EF922D
:10078000FF920F931F93CF93DF93EC01FC01EB5D7E
:10079000FD4F118210827C0186E4E81A8EEFF80A80
:1007A000D7018D919C91DC01ED91FC910084F18544
:1007B000E02D0995FE01E65DFD4F60837183828324
:1007C00093833696608371838283938338971082F4
:1007D00031971082329681E0808319821882359693
:1007E00088EE93E091838083E257F10910821182B1
:1007F00012821382349611821082329611821082F4
:1008000032961182108280E090E0FE01E80FF91F1D
:10081000EA53FE4F1182108202968E309105A9F79D
:100820000FEF1FEF26E130E04AE050E0BE016E5FBF
:100830007F4FCE010E941803F70180819181DC0176
:10084000ED91FC910284F385E02D099567E070E05D
:100850000E946A22AE014C525E4FBC01CE010E9442
:100860005103FE01EC50FE4F8AE090E0DE01A850FB
:10087000BE4F2D913C91821B930B97FD0196959550
:10088000879591838083FE01EA50FE4F118210828A
:10089000F70180819181DC01ED91FC910284F38567
:1008A000E02D09959E0124503E4F67E070E00E94C4
:1008B0006A22A901BC01CE010E945103FE01EC5D38
:1008C000FD4F81E0808370968FEF9FEF918380834F
:1008D000329691838083C85CDD4F99838883DF9152
:1008E000CF911F910F91FF90EF900895CF93DF93D9
:1008F000EC01CB01FE01E654FE4F71836083DB0106
:10090000ED91FC910190F081E02DBE010995FE0171
:10091000EB5DFD4F91838083892B29F4CE01DF911C
:10092000CF910C94BF03DF91CF91089586549E4FD1
:10093000DC018D919C91DC01ED91FC910280F381B1
:10094000E02D09940F931F93FC01E454FE4F0081A6
:10095000118122813381003886E9180788E9280748
:1009600031056CF4141615061606170644F4400FEC
:10097000511F621F731F40835183628373834081C1
:10098000518162817381403856496849710540F050
:100990004FE756E968E970E04083518362837383CF
:1009A0001F910F9108952F923F924F925F926F92F5
:1009B0007F928F929F92AF92BF92CF92DF92EF92EF
:1009C000FF920F931F93CF93DF93CDB7DEB7A3971B
:1009D0000FB6F894DEBF0FBECDBF7C0169A3FC014A
:1009E000E650FE4F80819181019709F453C10FEFCA
:1009F0001FEF24E030E044E050E0BE016F5F7F4F26
:100A0000C7010E941803F701E850FE4F2081318191
:100A1000C901B3E0880F991FBA95E1F741E050E0B2
:100A20004C0F5D1F840F951F5901AA0CBB1CA40E0F
:100A3000B51ED70160E070E01BA21AA2EAA1FBA1DB
:100A4000E217F307ECF51B01280E391E2501461AA3
:100A5000570A40E050E0812C912C612C712C6216D9
:100A6000730624F56D01C80CD91CE9A1EE2331F001
:100A70008101040F151F0850110905C08201041BD4
:100A8000150B02501109FCE2CF1AFEEFDF0AF60146
:100A9000C080D180F801D182C082FFEF6F1A7F0A37
:100AA00012E0810E911C48505109D9CF4AA15BA197
:100AB0004F5F5F4F5BA34AA318966E5F7F4FBECF19
:100AC00087010C501E4FD8014D915C9157FF2AC0F1
:100AD000FE01319660E070E0AA24BB24A41AB50A96
:100AE00080E090E06A157B050CF05CC082179307EC
:100AF0008CF46C01CC0CDD1CCE0EDF1ED601CD902B
:100B0000DC90CD20C09421F0CB01841B950B04C058
:100B10000196ECCF80E090E06F5F7F4F38960097B2
:100B2000F9F240C0AAE0B0E0BD01621B730B64178C
:100B30007507B4F5B90161507109212C312C5D01A3
:100B4000A41AB50A4C01E8E08E1A9108A9E0B0E0B9
:100B5000A41BB50B6A157B051CF13401620C731CD8
:100B600080E090E0821793078CF46C01CC0CDD1CC4
:100B7000C60CD71CF601C080D180CD20C09421F0D6
:100B8000CD01861B970B04C00196ECCF80E090E06E
:100B900061507109E8E02E1A31080097D9F202C0BD
:100BA00080E090E0BE016F5F7F4F6B01A0E0B0E09E
:100BB00057017AE0A71A7EEFB70A66E1762EA217F0
:100BC000B307C4F560E070E0FD01E80FF91FE40F22
:100BD000F51F7E9E40017F9E900C112462177307C3
:100BE00024F5FB01EE0FFF1FEC0DFD1D2080318071
:100BF00023202094B9F0F50120803180260E371E85
:100C0000F6E12F1631040CF045C0F101E80DF91D95
:100C10003196EE0FFF1FEE0DFF1D20803180232047
:100C20002094C1F56F5F7F4FD9CF1196F8E0CF0EBA
:100C3000D11CC5CF009729F0480F591FD8014D93FB
:100C40005C93FE0131969E012F5D3F4FC701DC0191
:100C5000AC52BE4F4081518111965C934E931296D7
:100C60004281538111965C934E9312964481558133
:100C700011965C934E931296468157814D935C93E7
:100C800038960896E217F30711F7F701EC5DFD4F70
:100C900081E08083A3960FB6F894DEBF0FBECDBF70
:100CA000DF91CF911F910F91FF90EF90DF90CF9048
:100CB000BF90AF909F908F907F906F905F904F907C
:100CC0003F902F9008954F925F926F927F928F92F4
:100CD0009F92AF92BF92CF92DF92EF92FF920F93CB
:100CE0001F93CF93DF93FC01E850FE4FE080F1802B
:100CF000329720813181420F531F329720813181F9
:100D0000620F731FE6E1E69F9001E79F300D11240B
:100D1000240F351F220F331F280F391F412C512C50
:100D2000612C712C6E147F04DCF55201A20EB31EEF
:100D3000C0E0D0E0A0E0B0E04301860E971EAE1503
:100D4000BF0524F56C01CC0EDD1E1CE2C11A1EEF9E
:100D5000D10AF601C080D180CD20C094A1F01AE064
:100D600081169104D8F46D01C40ED51EE6E1CE16AD
:100D7000D104A4F46501CC0EDD1EF601C280D3803F
:100D8000CD20C09459F411962296D9CF1FEF611A45
:100D9000710AECE24E0E511C0896C4CF81E001C0EE
:100DA00080E0DF91CF911F910F91FF90EF90DF9046
:100DB000CF90BF90AF909F908F907F906F905F90FB
:100DC0004F900895EF92FF920F931F93CF93DF936D
:100DD000EC017C0180E4E81A8EEFF80AD7018D91CE
:100DE0009C911197860F971F8D939C938E010C53A6
:100DF0001E4F62307105C1F054F46130710549F540
:100E0000F801A081B181119620E931E013C063306F
:100E10007105C1F064307105E1F4F801A081B18180
:100E2000119620EE3EE206C0F801A081B181119634
:100E300028EE33E00E94C522AB01BC01CE010E9426
:100E4000A2040EC0F801A081B181119628EB3BE00D
:100E5000F1CF8CE99FEFFE01EB5DFD4F9183808325
:100E6000D8018D919C91119701964AE0489F90017D
:100E7000499F300D1124F7014081518142175307DA
:100E80009CF08D939C93FE01E25DFD4F20813181AA
:100E900049E0429FC001439F900D11246AE070E039
:100EA0000E946A2271836083C654DE4F88819981D3
:100EB000DC01ED91FC910484F585E02DDF91CF916B
:100EC0001F910F91FF90EF9009945F926F927F9224
:100ED0008F929F92AF92BF92CF92DF92EF92FF924A
:100EE0000F931F93CF93DF93EC017B018A010E9444
:100EF0006306882309F419C10130110509F025C1E1
:100F00004E014AE0841A4EEF940AF401A081B181A7
:100F1000A230B1059CF05E01F8E0AF1AFEEFBF0A07
:100F2000F501E080F180AE0120E030E03E01FCE020
:100F30006F1AFEEF7F0AF6E15F2E31C081E0FE01FD
:100F4000E85DFD4F808301C1BC01660F771F640F10
:100F5000751FFB01EC52FE4FC080D1806FEFC616AB
:100F6000D606A9F0F30160817181620F731F569E4E
:100F7000F001579EF00D1124EA0FFB1FE80FF91F37
:100F80003196EE0FFF1FEC0FFD1FD182C08201963C
:100F90008E159F05CCF22F5F3F4F485F5F4F2E1598
:100FA0003F052CF0CE01029660E070E011C080E0B9
:100FB00090E0EECFFC01E20FF31F428153814F3FDF
:100FC0005F4F49F40F5F1F4F02960631110549F13B
:100FD00020E030E0EFCF245D3F4F283B41E0340775
:100FE00049F720E030E0F80140E050E07901E80EF8
:100FF000F91E3197D701A40FB51FCD90DC90119742
:101000001396DC92CE92129742505109309789F78D
:10101000245D3F4F283BA1E03A0729F76F5F7F4FE0
:10102000D1CF6115710519F0CE010E94E206FE01D3
:10103000EE53FE4F80819181019691838083F896D3
:1010400080819181880F991F8C0F9D1FDC01AA530D
:10105000BE4F2D913C9111972F5F3F4F2D933C93A5
:10106000CE0124E030E0DC01A450BE4F4D915C91F4
:101070001197989711965C934E939A964D915C9127
:101080001197989711965C934E939A964D915C9117
:101090001197989711965C934E939A964D915C9107
:1010A000119798974D935C9321503109089621151B
:1010B0003105C9F6DE01A05EBD4F2D913C91D501F1
:1010C0002D933C93DE01AE5DBD4F8D919C9191833C
:1010D0008083F40111821082FE01EC50FE4F8AE001
:1010E00090E0821B930B97FD0196959587959183D0
:1010F000808381E0FE01EC5DFD4F8083EA56F109BB
:1011000080819181DC01ED91FC910284F385E02DD9
:10111000099567E070E00E946A22AE0144505E4F7C
:10112000BC01CE010E94510310C0FE01EC50FE4FE5
:10113000808191818E0D9F1D918380833296808165
:101140009181800F911F91838083CC5DDD4F81E081
:101150008883DF91CF911F910F91FF90EF90DF90E7
:10116000CF90BF90AF909F908F907F906F905F9047
:101170000895EF92FF920F931F93CF93DF93EC01AB
:1011800000E010E078018FEFE81AF80AA70160E0AC
:1011900070E0CE010E946306811102C08701F2CF88
:1011A000A80160E070E0CE010E94650741E050E0D8
:1011B00060E070E0CE010E946507FE01EC53FE4F37
:1011C00080819181019622E3289FA001299F500DE3
:1011D0001124662757FD6095762FCE010E94A20448
:1011E000C654DE4F88819981DC01ED91FC91068423
:1011F000F785E02DDF91CF911F910F91FF90EF9038
:1012000009944F925F926F927F928F929F92AF92CA
:10121000BF92CF92DF92EF92FF920F931F93CF93E3
:10122000DF93EC015C0186E4A81A8EEFB80AD501C1
:101230008D919C91DC01ED91FC910480F581E02D74
:101240000995FE01E85DFD4F90818881992339F071
:1012500087FF15C11082CE010E94BF0310C187FF16
:1012600013C0CE01DF91CF911F910F91FF90EF90AE
:10127000DF90CF90BF90AF909F908F907F906F90B6
:101280005F904F900C94BF03F50180819181DC0148
:10129000ED91FC910084F185E02D09956B017C01B5
:1012A0004E01B6ED8B1ABDEF9B0AF40140805180D0
:1012B00062807380CB01841995093E96208131812B
:1012C0001216130684F4281B390B3183208312165F
:1012D00013064CF020E130E03183208328813981EE
:1012E000216039832883FE01EC5CFD4F40815181F0
:1012F00028813981141615066CF4481B590B51834B
:10130000408314161506E4F080E190E09183808319
:10131000226014C0FE01EA5CFD4F40815181141629
:10132000150674F4481B590B518340831416150697
:101330003CF080E190E091838083246039832883AE
:101340008881FE01E95DFD4F86FF06C0808191E046
:10135000892780831982188280818E01005D1D4F4C
:101360008823A1F0B701A601441955096609770938
:10137000F80180819181A281B381840F951FA61FFE
:10138000B71F80839183A283B38374C088819981BE
:10139000009709F449C090FF09C0FE01E75DFD4FC9
:1013A000208131E0232720833597308385FF03C0D8
:1013B000CE010E94B908888183FF04C061E0CE019C
:1013C0000E94D304888184FF04C060E0CE010E94A3
:1013D000D304888182FF05C040E050E061E070E006
:1013E00006C081FF07C040E050E06FEF7FEFCE0105
:1013F0000E946507888180FF15C0FE01EC53FE4FF7
:10140000408151814F5F5F4F662757FD6095762F72
:10141000CE010E94A20441E050E060E070E0CE0105
:101420000E94650719821882F80180819181A2814A
:10143000B381B701A601481B590B6A0B7B0BFE0158
:10144000E25DFD4F80819181AA2797FDA095BA2F7B
:10145000481759076A077B076CF041E050E060E0ED
:1014600070E0CE010E946507D801CD92DD92ED9229
:10147000FC921397F401C082D182E282F382D501FB
:101480008D919C91DC01ED91FC910680F781E02D1E
:10149000DF91CF911F910F91FF90EF90DF90CF9050
:1014A000BF90AF909F908F907F906F905F904F9084
:1014B0000994FC016032710509F461C09CF4643048
:1014C000710509F44BC03CF46130710531F16230B3
:1014D0007105A9F108956830710549F16031710510
:1014E00051F10895611581E0780709F448C04CF482
:1014F0006034710509F443C06038710509F045C0D6
:101500003EC0611582E07807D1F161157440E9F5BC
:10151000EB5DFD4F81E090E036C08081918181607C
:1015200091838083E85CFD4F86E990E02CC0808148
:101530009181886028C080819181806124C08081F0
:101540009181826091838083DF01AC5CBD4F86E92D
:1015500090E08D939C93EA5CFD4F0EC08081918159
:10156000846091838083DF01AA5CBD4F86E990E0AF
:101570008D939C93EC5CFD4F8FEF9FEF04C08081B7
:101580009181862B972B918380830895623071051A
:1015900051F06430710559F06130710579F4FC0146
:1015A000E85CFD4F07C0FC01EC5CFD4F03C0FC0193
:1015B000EA5CFD4F2FEF3FEF3183208308950F93B7
:1015C0001F93CF93DF93EC018B018C819D810E944F
:1015D000D01580E090E0FE01E80FF91F1682019619
:1015E00087309105C1F71B830A831D868C819D81FD
:1015F000FC01108E6CE30E94B81580E090E0DF9152
:10160000CF911F910F910895FC018481958121E074
:10161000FC01208F64E10C94B8150C94721D2EEF20
:101620003FE740E050E060E070E0CB010E94A9207D
:10163000CB010895FF920F931F93CF93DF938C01FB
:10164000EB01609194016730B0F5F80184819581D8
:101650000A960E94CA0FF82EF80184819581609144
:1016600094010A960E94D30F20919401FF2069F003
:10167000F801E20FF11DDF0116969681913029F0F5
:1016800081E08C9381E090E00DC0882381F0F80127
:10169000E20FF11DDF0116968681882341F01C922E
:1016A00082E090E0998388832A8381E00AC02F5FDB
:1016B00020939401C6CF10929401198218821A8245
:1016C00080E0DF91CF911F910F91FF900895EF92ED
:1016D000FF920F931F93CF93DF937C01EB01142FA5
:1016E00084E0CC0FDD1F8A95E1F7C05EDE4FF70185
:1016F00084819581042F20E04C8560E085960E94CE
:10170000B91AF7018481958120E0488161E08596CE
:101710000E94B91A28852195F701848195814A850F
:1017200062E085960E94B91A2C812A53F7018481C0
:1017300095814E8163E085960E94B91AF7018481F4
:101740009581212F4E856A818596DF91CF911F91DA
:101750000F91FF90EF900C94EA1A0F931F93CF9381
:10176000DF9300D01F92CDB7DEB78C01BE016F5F53
:101770007F4FC8010E941A0B882309F45CC089813D
:101780009A818130910519F00297D1F1EFCF4B8109
:1017900050E04730510550F7FA01E55CFF4FD801A2
:1017A00012968D919C9113970C94BF2260E074E087
:1017B00002C061E070E00E94590AD8CF68E070E092
:1017C0000E94590AD8011296ED91FC911397E85D99
:1017D000FD4F80818111CACF40E050E061E070E0B0
:1017E000C8010E94670BC2CF60E170E0E9CF62E000
:1017F00070E0E1CF64E070E0DECF60E270E0DBCF6C
:101800008B81813051F030F0833009F0AFCF64E04C
:1018100070E00BC061E070E008C062E070E0D801E9
:1018200012968D919C91139703C0F8018281938148
:101830000E94C60A9BCF0F900F900F90DF91CF911F
:101840001F910F91089541E050E060E070E00C942A
:10185000670B40E050E063E070E00C94670B0F937F
:10186000FC018481958103E023E0825B9F4F0E940D
:1018700000110F9108952F923F924F925F926F92B5
:101880007F928F929F92AF92BF92CF92DF92EF9210
:10189000FF920F931F93CF93DF931F92CDB7DEB7C5
:1018A0005C01762EC9014701F7013197442E27E0EC
:1018B000E29F400C1124512C212C312C2AE0C22E05
:1018C000D12CE12CF12CB801A70196010E94A02295
:1018D0008901642EFB01EE0FFF1FE65FFE4F2081A2
:1018E0003181452D440DF50184819581672D825B01
:1018F0009F4F59830E94D012862D5981952FFFEF5B
:101900002F1A3F0A29EF520E28143904E4F20F90DF
:10191000DF91CF911F910F91FF90EF90DF90CF90CB
:10192000BF90AF909F908F907F906F905F904F90FF
:101930003F902F9008954F925F926F927F928F9277
:101940009F92AF92BF92CF92DF92EF92FF920F934E
:101950001F93CF93DF93EC01EA81FB81EC5DFD4F98
:101960008081882309F485C18C819D81FC01108EC2
:101970002EE141E060E0825B9F4F0E94BA108C81B3
:101980009D812CE340E060E0825B9F4F0E94DD1070
:101990008C819D812CE34FE160E0825B9F4F0E9430
:1019A000DD108C819D8126E431E040E06DE4825BB6
:1019B0009F4F0E94D0128C819D8126E231E041E24E
:1019C00069E2825B9F4F0E94D0128C819D8126E04C
:1019D00031E041E26AE0825B9F4F0E94D012EA81CF
:1019E000FB81E75DFD4F80818823D1F1E2E26E2E1D
:1019F000712CE12CF12C51E2A52EB12CC12CD12C53
:101A00004701880C991C880C991CEA81FB81E450E1
:101A1000FE4FC4018C0D9D1D880F991FE80FF91F03
:101A2000208131812F3FFFEF3F0731F000E0A3011C
:101A3000B501CE010E942F0C4FEFC41AD40A83E0E7
:101A4000A81AB108E4E0CE16D104F9F6FFEFEF1AB8
:101A5000FF0A43E0640E711C84E0E816F10459F6B5
:101A600066246394712CE12CF12C16E100E4A02E85
:101A7000B12CC12CD12C1E9D40011F9D900C112416
:101A80002701440C551C440C551C8A819B81F40190
:101A9000EC0DFD1D3196EE0FFF1FE80FF91F2081A1
:101AA00031812F3F3F4F91F0FC01EC52FE4FC201BC
:101AB0008C0D9D1D880F991FE80FF91F2081318122
:101AC00000E0A301B501CE010E942F0CFFEFCF1A59
:101AD000DF0A43E0A41AB10886E1C816D104A9F6CA
:101AE000EFEFEE1AFE0AF3E06F0E711C4AE0E41607
:101AF000F10409F0BBCFE12CF12CC12CD12C570102
:101B0000AA0CBB1CAA0CBB1CAA81BB81AC52BE4F49
:101B1000F501EC0DFD1DEE0FFF1FEA0FFB1F2081ED
:101B200031812F3F8FEF380701F190968D919C9175
:101B300091978E0D9F1DAC01440F551F480F591FE3
:101B40004F5F5F4F92968D919C9193978C0D9D1D49
:101B500080959095BC01660F771F680F791F6D5BAC
:101B60007F4F00E0CE010E942F0CEFEFCE1ADE0A6D
:101B7000F4E0CF16D10441F64FEFE41AF40A84E002
:101B8000E816F10409F0B9CF8A819B81FC01E95D77
:101B9000FD4F2081211126C0EB56F10900851185EA
:101BA000222717FD2095322FC12CD12C42E0E42EA4
:101BB000F12C41E250E061E070E0CE010E943B0C6C
:101BC000EA81FB81E454FE4F00811181228133813F
:101BD00057E0E52EF12C40E050E065E470E0CE01E6
:101BE0000E943B0CEA81FB81E85DFD4F80818823E8
:101BF00009F43FC08D85811109C040E050E062E0EA
:101C000070E0CE010E94670B81E08D878C819D8101
:101C100060E0825B9F4F0E94B2108C819D810EE13B
:101C200024E141E06BE1825B9F4F0E9428118C818F
:101C30009D8140E061E0825B9F4F0E94B6108C81E5
:101C40009D8124ED30E044E06EE1825B9F4FDF91A7
:101C5000CF911F910F91FF90EF90DF90CF90BF90A9
:101C6000AF909F908F907F906F905F904F900C946B
:101C7000D012DF91CF911F910F91FF90EF90DF90E5
:101C8000CF90BF90AF909F908F907F906F905F901C
:101C90004F9008958DED93E00E94EC194AEA51E0CF
:101CA00064E971E08DED93E00E9431188DED93E0D1
:101CB00090939A018093990165E971E083EA91E03C
:101CC0000C9476048DED93E00E943617882341F141
:101CD00083EA91E00E9401098091C8039091C903B1
:101CE0008130910579F483EA91E00E94960465E9D8
:101CF00071E083EA91E00E9476044AEA51E06EE7DF
:101D000071E00AC0892B61F083EA91E00E94960499
:101D10004AEA51E068E671E08DED93E00C943118E9
:101D2000089510922E0410922D0488E791E090936C
:101D30002C0480932B0484E691E090939601809389
:101D400095010895CF93CFB7F894809164048111E1
:101D500027C0E2EBF5E08491EEE9F5E09491E82FFD
:101D6000F0E0EE0FFF1FE053FA4FA591B4918C9174
:101D7000892321F461E08AE00E94E21E61E08AE0AA
:101D80000E94A91E8CB580618CBD8CB580648CBD11
:101D900061E08DE00E94A91E61E08BE00E94A91E17
:101DA000809164048F5F80936404CFBFCF910895C6
:101DB00021E0FC012083089570E085E00C94211E51
:101DC000AF92BF92CF92DF92EF92FF920F931F9349
:101DD000CF93DF93EC0189819A812FE0289F8001C6
:101DE000299F100D112485E10E94041E800F911F70
:101DF00024E0969587952A95E1F79A83898328812F
:101E0000222391F1AC81AD80B12CC12CD12CE8857D
:101E1000F9857F0100E010E06E817F819B0140E049
:101E200050E08617970728F0BC01E817F90708F477
:101E3000BF0180E090E01F921F921F92AF930E941B
:101E4000C5206B830F900F900F900F9070E085E08E
:101E5000DF91CF911F910F91FF90EF90DF90CF9086
:101E6000BF90AF900C94211EDF91CF911F910F91E5
:101E7000FF90EF90DF90CF90BF90AF900895FC015E
:101E80008CE39FE09383828384E0818381E0848775
:101E90000895CF93DF93EC018C819D81892B81F193
:101EA0008C858F7151F584E10E94041EBC01882746
:101EB00077FD8095982F0E944B2126EE3FE34EEC54
:101EC00050E40E94D7210E941D219B017B836A83DD
:101ED0006115710581F084E08983FE0140E0848111
:101EE00095812817390710F449830AC04F5F32964D
:101EF0004430A9F702C08FEF89838C858F5F8C8770
:101F0000DF91CF910895FC0188E0808389E081838F
:101F100087E0828386E0838384E0848382E0858314
:101F200081E186830895DF92EF92FF920F931F93D2
:101F3000CF93DF937C01EC0100E010E0DD24DA9424
:101F400062E088810E94A91E88810E94181FF70103
:101F5000E00FF11F892B21F487818F5F878308C0F1
:101F60008781882349F08F3F11F4178201C0D782FF
:101F700060E088810E94A91E0F5F1F4F21960730E5
:101F80001105F1F6DF91CF911F910F91FF90EF9026
:101F9000DF900895FC01E60FF11D81E097819130FB
:101FA00009F080E00895FC01E60FF11D81E09781C2
:101FB0009F3F09F080E008958EBD00000DB407FE3C
:101FC000FDCF8EB50895DC01643508F053C0403371
:101FD00008F050C090968C919097342F3595359598
:101FE0003595E62FFF27E7FDF095242F27708230E7
:101FF00099F4DF01AB59BB4F84E53802A00DB11D48
:1020000011248C9190E0022E02C0959587950A9438
:10201000E2F78095817009C0833039F446271C9619
:102020008C91482740FF03C014C0811112C084E581
:102030003802E00DF11D1124EB59FB4F81E090E0D7
:10204000022E01C0880F0A94EAF7809590819823A8
:1020500010C084E53802E00DF11D1124EB59FB4F4F
:1020600081E090E0022E01C0880F0A94EAF7908187
:10207000982B908308951F93CF93DF93EC01162F35
:10208000F89460E08F850E94E21E888918161CF47F
:1020900060E00E94E21E812F0E94DC0F88891816E2
:1020A0001CF461E00E94E21E7894DF91CF911F91B1
:1020B000089528EF31E0E5E6F4E0DF01A9011D9283
:1020C00041505040E1F7DC0119961C9219971A967D
:1020D0001C920895DF92EF92FF920F931F93CF937C
:1020E000DF93EC018C858F5F8C8785E6E82E84E09A
:1020F000F82ED12C6D2D6064CE010E943B1060E85B
:10210000CE010E943B1061E08F850E94E21E88890B
:1021100018161CF460E00E94E21E00E010E0F701D7
:10212000E00FF11F80810E94DC0F0F5F1F4F04350D
:102130001105A9F7888918161CF461E00E94E21EB7
:10214000D39484E5E80EF11C86E0D812D3CF60E486
:10215000CE01DF91CF911F910F91FF90EF90DF9013
:102160000C943B10FC0160A361A30895FC0160A3E3
:1021700041A30895CF92DF92FF920F931F93CF93C5
:10218000DF931F92CDB7DEB76C01062FF42E10E05F
:10219000121754F4412F4F0D602FC60129830E945E
:1021A000E30F1F5F2981F4CF0F90DF91CF911F9133
:1021B0000F91FF90DF90CF900895CF92DF92FF9222
:1021C0000F931F93CF93DF931F92CDB7DEB76C01B0
:1021D000062FF42E10E0121754F4612F600F4F2DCC
:1021E000C60129830E94E30F1F5F2981F4CF0F905E
:1021F000DF91CF911F910F91FF90DF90CF900895C5
:10220000EF92FF920F931F93CF93DF93EC01F62E83
:10221000142FE22E0E94DD104FEF400F410F2E2DA4
:102220006F2DCE010E94DD10202F412F6F2DCE018A
:102230000E94BA106FEF6E0D6F0D202F412FCE014F
:10224000DF91CF911F910F91FF90EF900C94BA10F6
:10225000DF92EF92FF920F931F93CF93DF93EC01E6
:10226000E62ED22EF42E112707FD1095040F111D16
:1022700047FD1A958F2D992787FD90958017910717
:1022800044F42D2D4F2D6E2DCE010E94DD10F394C0
:10229000F1CFDF91CF911F910F91FF90EF90DF90E1
:1022A00008958F929F92AF92BF92CF92DF92EF925A
:1022B000FF920F931F93CF93DF93EC01E62ED42E62
:1022C000122FCC24C394C21AB22EB194BB0CF12CA1
:1022D000802F8470A82E802F8270982E802F887077
:1022E000882E0170F1160CF04DC0C7FC04C01150CF
:1022F000B394B394CB0CF3948F2D880F8F5FC80EDB
:10230000AA2071F0412F4D0D6F2D6E0DCE010E9450
:10231000E30F4F2D4D0D612F6E0DCE010E94E30F87
:10232000992071F04D2D411B6F2D6E0DCE010E9435
:10233000E30F4D2D4F19612F6E0DCE010E94E30F5B
:10234000882071F04F2D4D0D6E2D611BCE010E9426
:10235000E30F412F4D0D6E2D6F19CE010E94E30F3B
:10236000002309F4BFCF4D2D4F196E2D611BCE01F7
:102370000E94E30F4D2D411B6E2D6F19CE010E945F
:10238000E30FB0CFDF91CF911F910F91FF90EF90AE
:10239000DF90CF90BF90AF909F908F9008958F92D5
:1023A0009F92AF92BF92CF92DF92EF92FF920F93E4
:1023B0001F93CF93DF93EC01B62EA42E122FDD24B2
:1023C000D394D21AC22EC194CC0CFF24F394802F44
:1023D0008170882E992493949E0C02708FEF8F0D3C
:1023E0008117C4F5D7FC04C01150C394C394DC0C0E
:1023F0008F2D880F8F5FD80E882099F0212F220F04
:10240000290D4A2D411B6F2D6B0DCE010E94BA1074
:1024100023E02E0D4A2D4F19612F6B0DCE010E9426
:10242000BA10002399F0212F220F290D4A2D411BAC
:102430006B2D6F19CE010E94BA1023E02E0D4A2D8C
:102440004F196B2D611BCE010E94BA10F394E394D7
:10245000E394C4CFDF91CF911F910F91FF90EF9044
:10246000DF90CF90BF90AF909F908F9008959F92F4
:10247000AF92BF92CF92DF92EF92FF920F931F9392
:10248000CF93DF93EC01B62EF42EA22EDE2CD19446
:10249000DD0C9D2C920E1E2D160F292D612F0E94F2
:1024A000DD10CC24CA94C00ECF0C292D4C2D612FE9
:1024B000CE010E94DD10D00EFE0C2D2D4F2D6B2D68
:1024C000CE010E94BA10BA0C6FEF6B0D2D2D4F2D5F
:1024D000CE010E94BA1001E02E2D4F2D612FCE01AA
:1024E0000E945111DE2CD094DB0C02E02E2D4F2DDA
:1024F0006D2DCE010E945111CE1804E02E2D4C2DD1
:102500006D2DCE010E94511108E02E2D4C2D612F12
:10251000CE010E945111DF91CF911F910F91FF9039
:10252000EF90DF90CF90BF90AF909F900895AF92C3
:10253000BF92CF92DF92EF92FF920F931F93CF93B0
:10254000DF93EC01A62EC42EB22EF02E1E2DE194A8
:10255000EE0CD12ED60E2E2D2B0D6D2D0E94281196
:10256000FA94FE0CC10E6FEF6A0D6B0D611BEF2C20
:1025700001E0212F4C2DCE010E94CF1102E0212F2E
:102580004C2D6D2DCE010E94CF11DF91CF911F9167
:102590000F91FF90EF90DF90CF90BF90AF90089594
:1025A0006F927F928F929F92AF92BF92CF92DF9263
:1025B000EF92FF920F931F93CF93DF93F901A490B3
:1025C00031965491FC01F0A064350CF00CC1BB2491
:1025D000A7FCB094A62FBB27A7FDB095FD01EA0D7F
:1025E000FB1D1E161F060CF0FEC040330CF0FBC096
:1025F000C52E042F112707FD1095E801C50FD11D29
:1026000057FDDA951C161D060CF0EDC0E901229667
:102610009501295F3F4F37FF02C0295F3F4F73E0AD
:10262000359527957A95E1F747FF0AC0C52EC40E68
:10263000209FA001219F500D1124C41BD50B40E009
:102640000C2D112707FD1095040F111D47FD1A953C
:10265000013311051CF070E3C72EC41A67FD60E05A
:10266000E535F10514F0E4E5F0E01E2FFC0174857A
:102670007427862F992787FD9095FC01EA1BFB0B99
:10268000DF015F01F7E0AF22BB24E0E8F0E002C029
:10269000F595E795AA94E2F70E2FB7FD179653E04C
:1026A000B595A7955A95E1F7AC0FBD1FE42FE770DC
:1026B00051E001C0550FEA95EAF7459545954595D6
:1026C000E4E54E02800D911D11248B599B4F40E093
:1026D000DD24C7FCD094BB24B3943327E42FF0E06F
:1026E000EC15FD050CF07FC0FD01E490F1E0FF1258
:1026F00019C0EC01A02EFD01862E881A9C2E980C84
:10270000911608F067C09E2C9A2019F09880952A9F
:102710009882A69429F43196E4906894AA24A7F8A4
:102720002196ECCFF1101BC0752E7094EC01A02EF9
:10273000FD01862E881A9C2E980C911608F04AC02E
:102740009E2C9A2019F0988097209882A69429F4BC
:102750003196E4906894AA24A7F82196ECCFE3E0A0
:10276000FE1631F0EC01A02EFD01862E881A2EC037
:10277000752E7094962EEC01A02EFD019116B0F4EA
:102780008E2C8A2049F08880692C672660FE02C062
:10279000852A01C087208882A69429F43196E49086
:1027A0006894AA24A7F893942196E8CF7B2512C0B9
:1027B0009E2C9A2019F0988095269882A69429F448
:1027C0003196E4906894AA24A7F821969C2E980C40
:1027D000911670F3550F19F48C5A9F4F51E04F5FCB
:1027E000A20FB31F7BCFDF91CF911F910F91FF906D
:1027F000EF90DF90CF90BF90AF909F908F907F90A1
:102800006F900895DC01FB0184918F5F14968C9387
:1028100014973196E491EF5F1596EC9315976E5FE0
:102820007F4F5F967C936E935E970895EF920F9320
:10283000CF93DF93EC014E876D872F87E98A088B52
:1028400081E0888788A319A28F836CE972E0CE01AA
:102850000E9402140E94A20E8CB58F7D8CBD8CB597
:102860008C7F81608CBD8DB581608DBD8CB58C6099
:102870008CBD61E08E850E94A91E61E08D850E945D
:10288000A91E61E08F850E94A91E898918161CF473
:1028900061E00E94A91E888918161CF461E00E945C
:1028A000A91E898918166CF460E00E94E21E6AE095
:1028B00070E080E090E00E94A11D61E089890E94A3
:1028C000E21E8D85992787FD9095FC01E855FA4F0A
:1028D000E491F0E0EE0FFF1FEA53FA4F2591349197
:1028E0003D8B2C8BFC01EC56FA4F84918B8F8E859F
:1028F000992787FD9095FC01E855FA4FE491F0E0A7
:10290000EE0FFF1FEA53FA4F259134913B8B2A8B30
:10291000FC01EC56FA4F84918A8F8889992787FDAC
:102920009095FC01E855FA4FE491F0E0EE0FFF1F9F
:10293000EA53FA4F259134913F8B2E8BFC01EC56D4
:10294000FA4F84918C8F8F85992787FD9095FC0194
:10295000E855FA4FE491F0E0EE0FFF1FEA53FA4F0B
:1029600025913491398F288FFC01EC56FA4F8491D0
:102970008D8F61E2CE010E943B1064E1CE010E9486
:102980003B108B8587FF02C08FE78B876B85606864
:10299000CE010E943B1060E2CE010E943B106CE031
:1029A000CE010E943B10CE01DF91CF910F91EF90AD
:1029B0000C946A106F927F928F929F92AF92BF9207
:1029C000CF92DF92EF92FF920F931F93CF93DF93FB
:1029D000EC01162FF42EB02EE8A064350CF081C067
:1029E0008FE284170CF47DC0EC81F0E031970E9FEC
:1029F000C0010F9F900D1124860F911D67FD9A95C0
:102A0000181619060CF06DC08D81809FC00111242D
:102A1000840F911D47FD9A95181619060CF061C098
:102A2000A62E962EC22ED12C8A2D811B992787FD8A
:102A300090952C8130E0821793070CF051C0215003
:102A400031098217930779F0C29ED001C39EB00D61
:102A5000D29EB00D1124A80FB91FEE8DFF8DEA0F85
:102A6000FB1F749001C0712C8F2C6F2C282D2F19F7
:102A7000332727FD30958D8190E0281739076CF5B5
:102A800070FE11C081E0B81206C0482D6A2DCE013B
:102A90000E94E30F1EC00B2D2B2D462D692DCE015C
:102AA0000E94281116C089A198A1891791F088A3C6
:102AB00081E0B81206C0482D6A2DCE010E94E30FB6
:102AC00007C00B2D2B2D462D692DCE010E942811FC
:102AD000E8A276946B0C8394C9CF9B0CA394A4CFEB
:102AE000E8A2DF91CF911F910F91FF90EF90DF90BF
:102AF000CF90BF90AF909F908F907F906F900895F0
:102B00000F93CF93DF93EC01262F6A3039F42D8198
:102B100098858A85299F800D112422C06D3011F17E
:102B200008854A8569850E94DA1448855C81298573
:102B3000549F200D112429878F81882399F03327F2
:102B400027FD309584E590E0459F80199109112477
:102B5000821793073CF49D818A85499F800D11243B
:102B60008A87198681E090E0DF91CF910F910895D7
:102B7000CF93DF93FC01462FEC01C158DF4F70E08B
:102B800088EE93E00E946A226883842F64E10E94A9
:102B90004A22811101C081E081A7DF91CF91089580
:102BA0008F929F92AF92BF92CF92DF92EF92FF925D
:102BB000CF93DF93EC01CA8CDB8CC094D094E12CD2
:102BC000F12C0E947E1D4B015C010E947E1DA5011F
:102BD000940120953095409550956095709580951D
:102BE00090950E943A229B01AC01C701B6010E9458
:102BF0003A226B017C0189809A80A12CB12C0E9421
:102C00007E1D680D791D8A1D9B1D6C0D7D1D8E1D01
:102C10009F1DDF91CF91FF90EF90DF90CF90BF90FD
:102C2000AF909F908F900C947D208F929F92AF9247
:102C3000BF92CF92DF92EF92FF920F931F93CF93A9
:102C4000DF93EC015C0186E8A80EB11CD5018C91E4
:102C5000882309F44DC08C3018F41CE0181B01C007
:102C600010E0FE01EA5AFF4F81E080836E01BEE46E
:102C7000CB0ED11C60E0C6010E94B2104E01E3E50C
:102C80008E0E911CD4018C9103E0080F9DE2F92E69
:102C90004F2D481B410F23E0E22E24E560E0C601E2
:102CA0000E94971261E0C6010E94B210F401808177
:102CB00003E0080F4F2D481B410F24E560E0C601DB
:102CC0000E943712FE01E95AFF4F84E0808331965B
:102CD000D4018C91181B115D1083CC57DF4F688194
:102CE0007981C6010E947F1FF50180818150808318
:102CF000DF91CF911F910F91FF90EF90DF90CF90D8
:102D0000BF90AF909F908F900895DF92EF92FF92C7
:102D10000F931F93CF93DF93EC018C8D9D8D892BA7
:102D200009F49CC08E01025B1F4F40E061E0C801C6
:102D30000E94B61085E5FE01EE5AFF4F9081891B77
:102D40003596808331961082698D613009F462C0B6
:102D500028F0888D653008F074C06FC0CE0185966C
:102D60000E94711B81E0FE01EA5AFF4F80836CE9EB
:102D700072E0C8010E9402141D8E1C8EFE01EC5AE6
:102D8000FF4F108238EAD32E7E018AE0E80EF11C54
:102D9000CE010E9436178823D9F36BE874E0C8018E
:102DA0000E947F1F6A8D7B8D4AE050E0C8010E941F
:102DB000772066E774E0C8010E947F1F6D2D629541
:102DC0006F7070E04AE050E0C8010E9462206BE63C
:102DD00074E0C8010E947F1F64E0C7010E94CA0F0F
:102DE00081113CC0DA94A1F660E0CE010E94DC0EB5
:102DF00083B7817F846083BF83B7816083BF83B7DC
:102E0000816083BF889583B78E7F83BF83B78E7FB2
:102E100083BFBECFCF58DF4F488159816A817B8104
:102E20004F70552766277727483051056105710592
:102E300010F467E009C068E707C0882379F06B5F8A
:102E400003C0882359F06FE2C801DF91CF911F9131
:102E50000F91FF90EF90DF900C94A21FDF91CF9124
:102E60001F910F91FF90EF90DF9008958F929F92A6
:102E7000AF92BF92EF92FF920F931F93CF93DF9386
:102E8000EC017C0100E8E00EF11CF70180809180EC
:102E9000A280B3800E94721D95018401061B170B4E
:102EA000280B390BB901A8015E011FE7A10EB11C67
:102EB000F501808190E0A0E0B0E08E0105581F4F41
:102EC00084179507A607B70750F4F8018081918110
:102ED000A281B381892B8A2B8B2B09F040C0F8018A
:102EE00080819181A281B381892B8A2B8B2BA9F5BB
:102EF0007E01F5E2EF0EF11CC7010E946E1BC701B7
:102F00000E94DB1BC7010E949F1CCE010E94151668
:102F1000CE010E9485167E012EE4E20EF11CC7014F
:102F20000E946A10FE01EC5AFF4F8081811103C09C
:102F3000C7010E9459100E947E1DF80160837183B1
:102F400082839383FE01EB58FF4FC958DF4F2881DE
:102F50003981621B730B7183608380E036C00E94ED
:102F6000721DF5012081620F711D811D911DF701F8
:102F70006083718382839383FE01EF58FF4F40810A
:102F80005181628173814F5F5F4F6F4F7F4F4083ED
:102F9000518362837383F80110821182128213823B
:102FA0000E947E1DFE01E958FF4F6083718382837A
:102FB0009383CE010E94E00ECE010A960E94930FE9
:102FC000CE0148960E94490F81E0DF91CF911F9179
:102FD0000F91FF90EF90BF90AF909F908F900895CA
:102FE0000F931F93CF93DF938C01EC01C25BDF4FF4
:102FF000CE010E94591063E474E0CE010E947F1F4D
:10300000CE010E946A108CB583608CBD8DB58E7F19
:103010008DBD8CE791E0EEEFFFE30995F801EC5AE6
:10302000FF4F10826EE174E0CE010E94AD1FCE0111
:103030000E946A10065F1F4FC8010E94930F64E050
:10304000C8010E94CA0F811107C062E370E080E0EE
:1030500090E00E94A11DF0CFDF91CF911F910F91C1
:1030600008952F923F924F925F926F927F928F922C
:103070009F92AF92BF92CF92DF92EF92FF920F9307
:103080001F93CF93DF93CDB7DEB729970FB6F89490
:10309000DEBF0FBECDBF998788871B012A013C0187
:1030A00080E7680E711CF3018081882309F402C156
:1030B00081E0E885F985EA5AFF4F8083E885F98544
:1030C000EB5AFF4F1082E885F985EC5AFF4F1082CA
:1030D000E885F985108E8F01025B1F4F61E0C80102
:1030E0000E94B210888599858D5A9F4F9C838B834F
:1030F000C884D98497E5C90ED11CE884F984E8E531
:10310000EE0EF11C888599858E5A9F4F9A8389838C
:10311000E885F985EF58FF4FFE83ED838884998415
:10312000FAE08F0E911CA884B98485E2A80EB11C28
:10313000888599850E9436178823D1F3F1018491FF
:10314000882321F0EB81FC81508101C050E02DEA01
:1031500034E040E060E0C8015F830E94D0125F81EC
:103160004114510439F04CE0450F920160E0C80170
:103170000E94D012F60110828CE0F7018083B10129
:10318000C8010E947F1FE981FA819081892F880FF1
:10319000890F81958D5AF6018083EB81FC819081A6
:1031A000892F880F890F8195835DF7018083ED81D9
:1031B000FE81808184FF03C069EA74E002C065EA91
:1031C00074E0C8010E94AD1FE981FA819081892FC6
:1031D000880F890F81958D5AF6018083F7018081D0
:1031E0008F5F8083E885F98582A5882319F061EADD
:1031F00074E002C06DE974E0C8010E94AD1FE9816E
:10320000FA819081892F880F890F81958D5AF60157
:103210008083F70180818F5F808369E974E0C80152
:103220000E94AD1F65E0C4010E94CA0F882351F0BF
:10323000E885F98562A56F5FC5010E941B1DC50168
:103240000E94051D64E0C4010E94CA0F811113C0D1
:10325000F3012081822F90E0A0E0B0E0ED81FE81BB
:103260004081518162817381481759076A077B0742
:10327000A8F02F3F99F08FEFF3018083088519851F
:103280000B5D1F4F60E0C8010E94181BC8010E941F
:10329000EF1C81E0E885F985808F0CC066E0C401F1
:1032A0000E94CA0F882309F443CF888599850E941C
:1032B000F01734CF29960FB6F894DEBF0FBECDBFFE
:1032C000DF91CF911F910F91FF90EF90DF90CF9002
:1032D000BF90AF909F908F907F906F905F904F9036
:1032E0003F902F900895E0E8F7E72591349181E031
:1032F0002130304C09F080E00895CF93DF93EC014A
:103300000E9473199E01275A3F4FDE01A059BF4FFB
:10331000882309F43CC0E6E9F7E78491F90180834A
:10332000E7E9F7E7E491EC83E8E9F7E7E491ED8377
:10333000E9E9F7E7859194919F838E83EBE9F7E7BD
:103340008591949199878887EDE9F7E7E491EBA758
:10335000EEE9F7E7E491EAA7EFE9F7E7E491EC9308
:10336000E0EAF7E7859194919D8F8C8FE2EAF7E789
:10337000859194919F8F8E8FE4EAF7E785919491E0
:1033800099A388A3E6EAF7E78591949120C08CE39E
:10339000F90180831C822FEF2D8380E293E09F83CD
:1033A0008E8384ED93E09987888781E08BA78AA735
:1033B0002C938CEA9DE09D8F8C8F8EED9DE09F8FEE
:1033C0008E8F84E79EE099A388A38CE39FE09BA364
:1033D0008AA3DF91CF910895CF92DF92EF920F935E
:1033E000CF93DF93EC01FC01E158FF4F82E3808330
:1033F000349741E050E060E070E0408351836283A5
:1034000073833B978FEF8083CE010E947D19CE019D
:103410000E94D80E6FEFCE010E94DC0E6E018AE092
:10342000C80ED11CC6010E94830FC6010E94930FD3
:10343000CE0148960E943F0F3EE0E32E0FE020E1D0
:103440004BE06DE0CE01825B9F4F0E941614A59663
:10345000CE010E94841A65E0C6010E94CA0F88232B
:1034600051F060E0CE01DF91CF910F91EF90DF90AE
:10347000CF900C941B1D40E06DE175E0CE01DF9113
:10348000CF910F91EF90DF90CF900C94231BCF93AF
:10349000DF9350E0FA01EE0FFF1FE80FF91F3785A9
:1034A0002089E32FF22FE60FF11DE60FF11D259184
:1034B0003491FA01EE0FFF1FE80FF91F30A3278F99
:1034C000F90165917491FC01D481D69FC02D11241E
:1034D000E40FF51FC1A3F901A591B4916B2F70E022
:1034E000EC2FF0E0DC01A40FB51F6E177F0720F46E
:1034F000F90125913491C32FCD9FC02D11249296AF
:10350000CC93DF91CF91089521E0FC01248324E046
:1035100020A724E735E0308B278740E060E00E9459
:10352000471A61E070E083E00E94211EE1EBF0E0C9
:103530008081887F81608083F89410928000E1E828
:10354000F0E01082109285001092840088E191E0F2
:103550009093890080938800808188608083808137
:1035600081608083EFE6F0E08081826080837894E0
:1035700008950F93FC01862F642F011129C082301A
:10358000D1F048F4882391F0813011F540E0CF016B
:103590000F910C94471A8330A9F08430C9F48481C8
:1035A000489F602D1124658F268F12C04B3008F084
:1035B0006AE0668B0DC08481489F602D1124618F65
:1035C000228F06C08481489F602D1124638F248F31
:1035D0000F910895FC0121110EC0648B8481489FD6
:1035E000402D1124458B15A214A213A281E0878BD4
:1035F00080936906108E089580916906882319F0DA
:103600008091660601C080E08093B4000895FC01BB
:1036100061110DC0178A158A14A213A2108E109280
:10362000660610926706109269060C94FC1A0895BB
:10363000CF93DF93EC01611103C00E94071B198235
:10364000DF91CF9108950F931F93CF93DF93EC01F8
:103650008B0141110EC060E00E94181B1E870D8770
:103660001B8A1A8A81E0898389E08E8B198E1B8ED2
:103670001D8EDF91CF911F910F910895CF93DF930E
:10368000EC01611128C08881882329F18981811189
:1036900022C089852F819885E22FF92FE80FF11D2F
:1036A000E80FF11D859194918F3F2FEF920711F450
:1036B000188211C09C879927880F991FEA85FB857E
:1036C000E80FF91F6591749140E0CE010E94231B21
:1036D00089858F5F8987DF91CF91089560E00C9491
:1036E0003E1B60E00C94181B0F93CF93DF93EC010B
:1036F00061115DC08981882309F459C08D898111C8
:1037000056C02D853E858A899B89880F991F820F17
:10371000931FFC01859194910097D1F489898823A6
:1037200021F01B8A1A8AF90111C01982888160E090
:10373000882331F0CE010E943E1B8A899B8925C0D7
:10374000CE01DF91CF910F910C94071B859194913D
:10375000BC01769567957695679580FF1DC0AC0195
:10376000A6E056954795AA95E1F7292F2695269527
:10377000269520514F716F7000E0CE010E94B91A5A
:103780008A899B8901969B8B8A8B880F991FED856F
:10379000FE85E80FF91FDACF492F6F7320E0CE01C5
:1037A0000E94EA1A8A899B8901969B8B8A8BDF91FA
:1037B000CF910F91089560E00C94741BCF93DF9329
:1037C000EC016111B9C08F89882309F4B5C08D89D6
:1037D000811105C0CE01DF91CF910C94071B815060
:1037E0008D8B8DA1811138C08BA19CA101969C016C
:1037F000220F331FEF8DF8A1E20FF31F25913491B3
:10380000422F47704EA3A90163E0569547956A95EC
:10381000E1F7BA0176956795232F269526952FA374
:103820006F732C81629F602D11246DA341704093B2
:1038300065069CA38BA329A130E08217930760F053
:103840008AA1882329F0281B31093CA32BA304C09B
:1038500060E0CE010E94071B8DA181508DA3288DB1
:103860002F5F288F4C893FA1340F8C85380F3A8306
:103870006B8D662361F070E0822F992787FD90950C
:103880000E946A228C8D869F300D11243A838A8192
:1038900090E0CB966BE370E00E946A228A833E89B7
:1038A0003B83698D662371F0772767FD7095822FC2
:1038B000992787FD90950E946A228A8D869F300DF8
:1038C00011243B836D8D662391F0822F992787FD0C
:1038D000909570E00E946A22CB0162E070E00E9445
:1038E0006A222E8D9B81289F900D11249B838B81B2
:1038F0004F3339F08A300CF089E087FD80E08B830C
:1039000001C01B82F894EA81F0E0E55DFA4FE49192
:10391000E093680698A58D81989F802D11249B8146
:10392000899F802D11249EA1899F802D1124809331
:103930006706809366067894DF91CF91089560E0E2
:103940000C94DE1B60916706662321F180916A0664
:103950008F5F80936A06909168068917D8F08091EE
:10396000690691E089278093690610926A06809122
:103970006506882369F090911E0183E4989F802D4D
:103980001124895B80931E010E944A22909366064F
:103990000C94FC1A08951F920F920FB60F921124E7
:1039A0002F933F934F935F936F937F938F939F9347
:1039B000AF93BF93EF93FF930E94A21CFF91EF91EF
:1039C000BF91AF919F918F917F916F915F914F9137
:1039D0003F912F910F900FBE0F901F901895CF938E
:1039E000DF93EC0160E00E94181B8CE695E09E8757
:1039F0008D871B8A1A8A81E0898389E08E8B198ED4
:103A00001B8E1D8EDF91CF910895CF93DF93EC0134
:103A100060E00E94181B86E695E09E878D871B8AD2
:103A20001A8A81E0898389E08E8B198E1B8E1D8E08
:103A3000DF91CF910895FC01862F992787FD9095FE
:103A4000668170E06F5F7F4F0E946A2285830895D0
:103A50001F920F920FB60F9211242F933F938F93C3
:103A60009F93AF93BF9380916C0690916D06A09148
:103A70006E06B0916F0630916B0623E0230F2D3751
:103A800020F40196A11DB11D05C026E8230F029662
:103A9000A11DB11D20936B0680936C0690936D065B
:103AA000A0936E06B0936F06809170069091710698
:103AB000A0917206B09173060196A11DB11D80936D
:103AC000700690937106A0937206B0937306BF912F
:103AD000AF919F918F913F912F910F900FBE0F90BB
:103AE0001F9018952FB7F89460916C0670916D0631
:103AF00080916E0690916F062FBF08953FB7F8949E
:103B00008091700690917106A0917206B091730633
:103B100026B5A89B05C02F3F19F00196A11DB11D28
:103B20003FBF6627782F892F9A2F620F711D811D45
:103B3000911D42E0660F771F881F991F4A95D1F7A4
:103B40000895CF92DF92EF92FF92CF93DF936B01B4
:103B50007C010E947E1DEB01C114D104E104F1043B
:103B600089F00E941C210E947E1D6C1B7D0B683E0B
:103B7000734090F381E0C81AD108E108F108C851F8
:103B8000DC4FEACFDF91CF91FF90EF90DF90CF90A5
:103B90000895789484B5826084BD84B5816084BDC5
:103BA00085B5826085BD85B5816085BDEEE6F0E0B6
:103BB000808181608083E1E8F0E010828081826012
:103BC0008083808181608083E0E8F0E08081816093
:103BD0008083E1EBF0E0808184608083E0EBF0E0C3
:103BE000808181608083EAE7F0E080818460808367
:103BF0008081826080838081816080838081806811
:103C000080831092C10008958E3008F08E50877026
:103C100020911F0190E4299F90011124822B809311
:103C20007C0080917A00806480937A0080917A0091
:103C300086FDFCCF809178002091790090E0922B56
:103C400008951F93CF93DF93182FEB0161E00E943B
:103C5000A91E209711F460E004C0CF3FD10539F4CC
:103C600061E0812FDF91CF911F910C94E21EE12F33
:103C7000F0E0E058FA4FE491E330F9F048F4E13035
:103C8000B9F0E230A1F584B5806284BDC8BD34C00E
:103C9000E730E9F0E83019F1E43049F5809180002F
:103CA000806280938000D0938B00C0938A0024C0F0
:103CB00084B5806884BDC7BD1FC0809180008068C6
:103CC00080938000D0938900C093880015C08091B4
:103CD000B00080688093B000C093B3000DC08091A5
:103CE000B00080628093B000C093B40005C0C038BB
:103CF000D1050CF0B5CFAFCFDF91CF911F910895D3
:103D0000833081F028F4813099F08230A1F0089559
:103D10008730A9F08830B9F08430D1F480918000E8
:103D20008F7D03C0809180008F77809380000895FD
:103D300084B58F7702C084B58F7D84BD089580914E
:103D4000B0008F7703C08091B0008F7D8093B0006A
:103D50000895CF93DF9390E0FC01EC56FA4F249145
:103D6000FC01E855FA4F8491882349F190E0880FCF
:103D7000991FFC01E053FA4FA591B4918A539A4FD1
:103D8000FC01C591D4919FB7611108C0F8948C9142
:103D9000209582238C93888182230AC0623051F45B
:103DA000F8948C91322F309583238C938881822BC9
:103DB000888304C0F8948C91822B8C939FBFDF91F1
:103DC000CF9108950F931F93CF93DF931F92CDB799
:103DD000DEB7282F30E0F901E058FA4F8491F9015D
:103DE000EC56FA4F1491F901E855FA4F049100236B
:103DF000C9F0882321F069830E94801E6981E02F29
:103E0000F0E0EE0FFF1FEA53FA4FA591B4919FB770
:103E1000F8948C91611103C01095812301C0812B0E
:103E20008C939FBF0F90DF91CF911F910F910895B9
:103E3000CF93DF93282F30E0F901E058FA4F8491B7
:103E4000F901EC56FA4FD491F901E855FA4FC491B3
:103E5000CC2391F081110E94801EEC2FF0E0EE0F38
:103E6000FF1FE454FA4FA591B4912C912D2381E0CA
:103E700090E021F480E002C080E090E0DF91CF91FB
:103E80000895CF92DF92EF92FF920F931F93CF93FB
:103E9000DF937C016A01EB0100E010E00C151D05C9
:103EA00071F06991D701ED91FC910190F081E02DC5
:103EB000C7010995892B19F00F5F1F4FEFCFC8017C
:103EC000DF91CF911F910F91FF90EF90DF90CF90F6
:103ED00008956115710581F0DB010D900020E9F76F
:103EE000AD0141505109461B570BDC01ED91FC918E
:103EF0000280F381E02D099480E090E00895EF9234
:103F0000FF920F931F93CF93DF938C017B01C0E04F
:103F1000D0E0F701EC0FFD1F6491662359F0F80122
:103F2000A081B181ED91FC91C8010995892B11F017
:103F30002196EFCFCE01DF91CF911F910F91FF908E
:103F4000EF900895DC01ED91FC910190F081E02D5E
:103F5000099463E871E00C94691F0F931F93CF934A
:103F6000DF93EC010E947F1F8C01CE010E94A91FEC
:103F7000800F911FDF91CF911F910F9108958F9224
:103F80009F92AF92BF92CF92DF92EF92FF920F93E8
:103F90001F93CF93DF93CDB7DEB7A1970FB6F894F9
:103FA000DEBF0FBECDBF7C01C42EE52FCB01D22ECC
:103FB00019A221E02D1510F02AE0D22E8E010F5DFE
:103FC0001F4F8D2C912CA12CB12C6C2D7E2FA50177
:103FD00094010E947E228C2DD29E801911240150C2
:103FE00011098A3014F4805D01C0895CF801808376
:103FF000211531054105510521F0C22EE32FCA01DB
:10400000E4CFB801C7010E94691FA1960FB6F894CA
:10401000DEBF0FBECDBFDF91CF911F910F91FF90FB
:10402000EF90DF90CF90BF90AF909F908F900895CA
:10403000CF92DF92EF92FF920F931F93CF93DF9374
:10404000EC016A017B012115310579F4E881F981E0
:104050000190F081E02D642FDF91CF911F910F919E
:10406000FF90EF90DF90CF9009942A303105E9F46A
:1040700077FF1AC06DE20E94A21F8C0144275527CA
:10408000BA014C195D096E097F092AE0CE010E9430
:10409000BF1F800F911FDF91CF911F910F91FF9054
:1040A000EF90DF90CF9008952AE0B701A601CE01EE
:1040B000DF91CF911F910F91FF90EF90DF90CF9004
:1040C0000C94BF1F9A01AB01662757FD6095762FB0
:1040D0000C9418202115310541F4DC01ED91FC917F
:1040E0000190F081E02D642F09940C94BF1F9A0178
:1040F000AB0160E070E00C946A20611571058105E8
:10410000910511F00C943A230895CF93DF9300D0DA
:1041100000D0CDB7DEB79B01AC01611571058105FB
:10412000910569F069833A834B835C830E94352350
:1041300029813A814B815C810E94A02203C060E00A
:1041400070E0CB010F900F900F900F90DF91CF9107
:104150000895CF92DF92EF92FF926B017C0162177C
:1041600073078407950764F4CA01B9016C197D09C6
:104170008E099F090E9485206C0D7D1D8E1D9F1D3F
:10418000FF90EF90DF90CF9008954F925F926F92E3
:104190007F92AF92BF92CF92DF92EF92FF920F93F6
:1041A0001F93CF93DF93CDB7DEB729013A01621B8E
:1041B000730B840B950B29893A894B895C892A19E1
:1041C0003B094C095D09298B3A8B4B8B5C8B9B011E
:1041D000AC0169897A898B899C890E943A22E4180A
:1041E000F50806091709A80197010E94A0222A0DC7
:1041F0003B1D4C1D5D1DCA01B901DF91CF911F917F
:104200000F91FF90EF90DF90CF90BF90AF907F9095
:104210006F905F904F90089508950E94C91D0E946D
:104220000C210E944A0EC0E0D0E00E94620E20974E
:10423000E1F30E940000F9CF089598D088F09F57CD
:1042400090F0B92F9927B751A0F0D1F0660F771FE2
:10425000881F991F1AF0BA95C9F712C0B13081F0C2
:104260009FD0B1E008959CC0672F782F8827B85F52
:1042700039F0B93FCCF3869577956795B395D9F723
:104280003EF490958095709561957F4F8F4F9F4F2D
:104290000895E89409C097FB3EF490958095709539
:1042A00061957F4F8F4F9F4F9923A9F0F92F96E982
:1042B000BB279395F695879577956795B795F111F7
:1042C000F8CFFAF4BB0F11F460FF1BC06F5F7F4F94
:1042D0008F4F9F4F16C0882311F096E911C07723A6
:1042E00021F09EE8872F762F05C0662371F096E8AF
:1042F000862F70E060E02AF09A95660F771F881F7E
:10430000DAF7880F9695879597F9089597F99F673B
:1043100080E870E060E008959FEF80EC089500244D
:104320000A941616170618060906089500240A941A
:1043300012161306140605060895092E0394000CA0
:1043400011F4882352F0BB0F40F4BF2B11F460FF2F
:1043500004C06F5F7F4F8F4F9F4F089557FD905858
:10436000440F551F59F05F3F71F04795880F97FB39
:10437000991F61F09F3F79F08795089512161306F3
:104380001406551FF2CF4695F1DF08C01616170622
:104390001806991FF1CF8695710561050894089557
:1043A000E894BB2766277727CB0197F908950BD0B0
:1043B000C4CFB5DF28F0BADF18F0952309F0A6CFF7
:1043C000ABCF1124EECFCADFA0F3959FD1F3950FA9
:1043D00050E0551F629FF001729FBB27F00DB11D89
:1043E000639FAA27F00DB11DAA1F649F6627B00D19
:1043F000A11D661F829F2227B00DA11D621F739F02
:10440000B00DA11D621F839FA00D611D221F749F0F
:104410003327A00D611D231F849F600D211D822F56
:10442000762F6A2F11249F5750408AF0E1F088239D
:104430004AF0EE0FFF1FBB1F661F771F881F9150AA
:104440005040A9F79E3F510570F060CFAACF5F3F63
:10445000ECF3983EDCF3869577956795B795F795DD
:10446000E7959F5FC1F7FE2B880F911D9695879565
:1044700097F90895DB018F939F930E94CC22BF91FF
:10448000AF91A29F800D911DA39F900DB29F900DA3
:1044900011240895991B79E004C0991F961708F01C
:1044A000961B881F7A95C9F780950895AA1BBB1B98
:1044B00051E107C0AA1FBB1FA617B70710F0A61B24
:1044C000B70B881F991F5A95A9F780959095BC0145
:1044D000CD01089597FB072E16F4009407D077FDC1
:1044E00009D00E94562207FC05D03EF49095819594
:1044F0009F4F0895709561957F4F0895A1E21A2E00
:10450000AA1BBB1BFD010DC0AA1FBB1FEE1FFF1F77
:10451000A217B307E407F50720F0A21BB30BE40BC7
:10452000F50B661F771F881F991F1A9469F760950E
:104530007095809590959B01AC01BD01CF010895C8
:10454000052E97FB1EF400940E94B72257FD07D05A
:104550000E947E2207FC03D04EF40C94B7225095A3
:104560004095309521953F4F4F4F5F4F089590955F
:104570008095709561957F4F8F4F9F4F0895EE0FF7
:10458000FF1F0590F491E02D09940E94D722B7FFF8
:104590000895821B930B08950E94D722A59F900D2A
:1045A000B49F900DA49F800D911D11240895A29F8A
:1045B000B001B39FC001A39F700D811D1124911DF7
:1045C000B29F700D811D1124911D08958F929F92AD
:1045D000AF92BF92CF92DF92EF92FF92CF93DF9391
:1045E000EC01688179818A819B8161157105810562
:1045F000910521F464E279ED8BE597E02DE133EF4D
:1046000041E050E00E94A02249015A019B01AC0107
:10461000A7EAB1E40E94CC226B017C01ACEEB4EFBE
:10462000A50194010E944623C60ED71EE81EF91E5E
:10463000F7FE06C081E0C81AD108E10880E8F80A50
:10464000C882D982EA82FB82C701B6019F77DF91D7
:10465000CF91FF90EF90DF90CF90BF90AF909F9061
:104660008F9008950E94E622089586E091E00E94CE
:10467000E622089560930601709307018093080174
:10468000909309010895B7FF0C94CC220E94CC228C
:0A469000821B930B0895F894FFCFEE
:10469A0000007406800001000000CC00C400BC00C9
:1046AA00B400AC00A4009C0094008C0084000101BA
:1046BA0000002D001A0001000000010007000A0096
:1046CA00000021003500010000000500070003007A
:1046DA0000000E002E0006000000000007000B007C
:1046EA0001000100000000000000000007000200B5
:1046FA0000000000DF0A040BAD0B9B0C0D0B0F0B27
:10470A00230C290C000000008015411F4C4F414426
:10471A004552000D0A006E616E00696E66006F7682
:04472A0066002E00F7
:00000001FF
